{
  "contractName": "TokenABC",
  "abi": [
    {
      "inputs": [
        {
          "internalType": "uint256",
          "name": "initialSupply",
          "type": "uint256"
        },
        {
          "internalType": "uint256",
          "name": "_tokenPrice",
          "type": "uint256"
        }
      ],
      "stateMutability": "nonpayable",
      "type": "constructor"
    },
    {
      "inputs": [
        {
          "internalType": "address",
          "name": "spender",
          "type": "address"
        },
        {
          "internalType": "uint256",
          "name": "allowance",
          "type": "uint256"
        },
        {
          "internalType": "uint256",
          "name": "needed",
          "type": "uint256"
        }
      ],
      "name": "ERC20InsufficientAllowance",
      "type": "error"
    },
    {
      "inputs": [
        {
          "internalType": "address",
          "name": "sender",
          "type": "address"
        },
        {
          "internalType": "uint256",
          "name": "balance",
          "type": "uint256"
        },
        {
          "internalType": "uint256",
          "name": "needed",
          "type": "uint256"
        }
      ],
      "name": "ERC20InsufficientBalance",
      "type": "error"
    },
    {
      "inputs": [
        {
          "internalType": "address",
          "name": "approver",
          "type": "address"
        }
      ],
      "name": "ERC20InvalidApprover",
      "type": "error"
    },
    {
      "inputs": [
        {
          "internalType": "address",
          "name": "receiver",
          "type": "address"
        }
      ],
      "name": "ERC20InvalidReceiver",
      "type": "error"
    },
    {
      "inputs": [
        {
          "internalType": "address",
          "name": "sender",
          "type": "address"
        }
      ],
      "name": "ERC20InvalidSender",
      "type": "error"
    },
    {
      "inputs": [
        {
          "internalType": "address",
          "name": "spender",
          "type": "address"
        }
      ],
      "name": "ERC20InvalidSpender",
      "type": "error"
    },
    {
      "anonymous": false,
      "inputs": [
        {
          "indexed": true,
          "internalType": "address",
          "name": "owner",
          "type": "address"
        },
        {
          "indexed": true,
          "internalType": "address",
          "name": "spender",
          "type": "address"
        },
        {
          "indexed": false,
          "internalType": "uint256",
          "name": "value",
          "type": "uint256"
        }
      ],
      "name": "Approval",
      "type": "event"
    },
    {
      "anonymous": false,
      "inputs": [
        {
          "indexed": true,
          "internalType": "address",
          "name": "from",
          "type": "address"
        },
        {
          "indexed": true,
          "internalType": "address",
          "name": "to",
          "type": "address"
        },
        {
          "indexed": false,
          "internalType": "uint256",
          "name": "value",
          "type": "uint256"
        }
      ],
      "name": "Transfer",
      "type": "event"
    },
    {
      "inputs": [
        {
          "internalType": "address",
          "name": "owner",
          "type": "address"
        },
        {
          "internalType": "address",
          "name": "spender",
          "type": "address"
        }
      ],
      "name": "allowance",
      "outputs": [
        {
          "internalType": "uint256",
          "name": "",
          "type": "uint256"
        }
      ],
      "stateMutability": "view",
      "type": "function",
      "constant": true
    },
    {
      "inputs": [
        {
          "internalType": "address",
          "name": "spender",
          "type": "address"
        },
        {
          "internalType": "uint256",
          "name": "value",
          "type": "uint256"
        }
      ],
      "name": "approve",
      "outputs": [
        {
          "internalType": "bool",
          "name": "",
          "type": "bool"
        }
      ],
      "stateMutability": "nonpayable",
      "type": "function"
    },
    {
      "inputs": [
        {
          "internalType": "address",
          "name": "account",
          "type": "address"
        }
      ],
      "name": "balanceOf",
      "outputs": [
        {
          "internalType": "uint256",
          "name": "",
          "type": "uint256"
        }
      ],
      "stateMutability": "view",
      "type": "function",
      "constant": true
    },
    {
      "inputs": [],
      "name": "decimals",
      "outputs": [
        {
          "internalType": "uint8",
          "name": "",
          "type": "uint8"
        }
      ],
      "stateMutability": "view",
      "type": "function",
      "constant": true
    },
    {
      "inputs": [],
      "name": "name",
      "outputs": [
        {
          "internalType": "string",
          "name": "",
          "type": "string"
        }
      ],
      "stateMutability": "view",
      "type": "function",
      "constant": true
    },
    {
      "inputs": [],
      "name": "symbol",
      "outputs": [
        {
          "internalType": "string",
          "name": "",
          "type": "string"
        }
      ],
      "stateMutability": "view",
      "type": "function",
      "constant": true
    },
    {
      "inputs": [],
      "name": "tokenPrice",
      "outputs": [
        {
          "internalType": "uint256",
          "name": "",
          "type": "uint256"
        }
      ],
      "stateMutability": "view",
      "type": "function",
      "constant": true
    },
    {
      "inputs": [],
      "name": "tokensSold",
      "outputs": [
        {
          "internalType": "uint256",
          "name": "",
          "type": "uint256"
        }
      ],
      "stateMutability": "view",
      "type": "function",
      "constant": true
    },
    {
      "inputs": [],
      "name": "totalSupply",
      "outputs": [
        {
          "internalType": "uint256",
          "name": "",
          "type": "uint256"
        }
      ],
      "stateMutability": "view",
      "type": "function",
      "constant": true
    },
    {
      "inputs": [
        {
          "internalType": "address",
          "name": "to",
          "type": "address"
        },
        {
          "internalType": "uint256",
          "name": "value",
          "type": "uint256"
        }
      ],
      "name": "transfer",
      "outputs": [
        {
          "internalType": "bool",
          "name": "",
          "type": "bool"
        }
      ],
      "stateMutability": "nonpayable",
      "type": "function"
    },
    {
      "inputs": [
        {
          "internalType": "address",
          "name": "from",
          "type": "address"
        },
        {
          "internalType": "address",
          "name": "to",
          "type": "address"
        },
        {
          "internalType": "uint256",
          "name": "value",
          "type": "uint256"
        }
      ],
      "name": "transferFrom",
      "outputs": [
        {
          "internalType": "bool",
          "name": "",
          "type": "bool"
        }
      ],
      "stateMutability": "nonpayable",
      "type": "function"
    },
    {
      "inputs": [
        {
          "internalType": "uint256",
          "name": "numberOfTokens",
          "type": "uint256"
        }
      ],
      "name": "buyTokens",
      "outputs": [],
      "stateMutability": "payable",
      "type": "function",
      "payable": true
    }
  ],
  "bytecode": "0x608060405234801562000010575f80fd5b5060405162001d4138038062001d41833981810160405281019062000036919062000405565b6040518060400160405280600881526020017f546f6b656e4142430000000000000000000000000000000000000000000000008152506040518060400160405280600381526020017f41424300000000000000000000000000000000000000000000000000000000008152508160039081620000b39190620006a5565b508060049081620000c59190620006a5565b505050806005819055506200010b30620000e46200011360201b60201c565b600a620000f2919062000912565b84620000ff919062000962565b6200011b60201b60201c565b505062000aab565b5f6012905090565b5f73ffffffffffffffffffffffffffffffffffffffff168273ffffffffffffffffffffffffffffffffffffffff16036200018e575f6040517fec442f05000000000000000000000000000000000000000000000000000000008152600401620001859190620009ef565b60405180910390fd5b620001a15f8383620001a560201b60201c565b5050565b5f73ffffffffffffffffffffffffffffffffffffffff168373ffffffffffffffffffffffffffffffffffffffff1603620001f9578060025f828254620001ec919062000a0a565b92505081905550620002ca565b5f805f8573ffffffffffffffffffffffffffffffffffffffff1673ffffffffffffffffffffffffffffffffffffffff1681526020019081526020015f205490508181101562000285578381836040517fe450d38c0000000000000000000000000000000000000000000000000000000081526004016200027c9392919062000a55565b60405180910390fd5b8181035f808673ffffffffffffffffffffffffffffffffffffffff1673ffffffffffffffffffffffffffffffffffffffff1681526020019081526020015f2081905550505b5f73ffffffffffffffffffffffffffffffffffffffff168273ffffffffffffffffffffffffffffffffffffffff160362000313578060025f82825403925050819055506200035d565b805f808473ffffffffffffffffffffffffffffffffffffffff1673ffffffffffffffffffffffffffffffffffffffff1681526020019081526020015f205f82825401925050819055505b8173ffffffffffffffffffffffffffffffffffffffff168373ffffffffffffffffffffffffffffffffffffffff167fddf252ad1be2c89b69c2b068fc378daa952ba7f163c4a11628f55a4df523b3ef83604051620003bc919062000a90565b60405180910390a3505050565b5f80fd5b5f819050919050565b620003e181620003cd565b8114620003ec575f80fd5b50565b5f81519050620003ff81620003d6565b92915050565b5f80604083850312156200041e576200041d620003c9565b5b5f6200042d85828601620003ef565b92505060206200044085828601620003ef565b9150509250929050565b5f81519050919050565b7f4e487b71000000000000000000000000000000000000000000000000000000005f52604160045260245ffd5b7f4e487b71000000000000000000000000000000000000000000000000000000005f52602260045260245ffd5b5f6002820490506001821680620004c657607f821691505b602082108103620004dc57620004db62000481565b5b50919050565b5f819050815f5260205f209050919050565b5f6020601f8301049050919050565b5f82821b905092915050565b5f60088302620005407fffffffffffffffffffffffffffffffffffffffffffffffffffffffffffffffff8262000503565b6200054c868362000503565b95508019841693508086168417925050509392505050565b5f819050919050565b5f6200058d620005876200058184620003cd565b62000564565b620003cd565b9050919050565b5f819050919050565b620005a8836200056d565b620005c0620005b78262000594565b8484546200050f565b825550505050565b5f90565b620005d6620005c8565b620005e38184846200059d565b505050565b5b818110156200060a57620005fe5f82620005cc565b600181019050620005e9565b5050565b601f82111562000659576200062381620004e2565b6200062e84620004f4565b810160208510156200063e578190505b620006566200064d85620004f4565b830182620005e8565b50505b505050565b5f82821c905092915050565b5f6200067b5f19846008026200065e565b1980831691505092915050565b5f6200069583836200066a565b9150826002028217905092915050565b620006b0826200044a565b67ffffffffffffffff811115620006cc57620006cb62000454565b5b620006d88254620004ae565b620006e58282856200060e565b5f60209050601f8311600181146200071b575f841562000706578287015190505b62000712858262000688565b86555062000781565b601f1984166200072b86620004e2565b5f5b8281101562000754578489015182556001820191506020850194506020810190506200072d565b8683101562000774578489015162000770601f8916826200066a565b8355505b6001600288020188555050505b505050505050565b7f4e487b71000000000000000000000000000000000000000000000000000000005f52601160045260245ffd5b5f8160011c9050919050565b5f808291508390505b60018511156200081357808604811115620007eb57620007ea62000789565b5b6001851615620007fb5780820291505b80810290506200080b85620007b6565b9450620007cb565b94509492505050565b5f826200082d5760019050620008ff565b816200083c575f9050620008ff565b8160018114620008555760028114620008605762000896565b6001915050620008ff565b60ff84111562000875576200087462000789565b5b8360020a9150848211156200088f576200088e62000789565b5b50620008ff565b5060208310610133831016604e8410600b8410161715620008d05782820a905083811115620008ca57620008c962000789565b5b620008ff565b620008df8484846001620007c2565b92509050818404811115620008f957620008f862000789565b5b81810290505b9392505050565b5f60ff82169050919050565b5f6200091e82620003cd565b91506200092b8362000906565b92506200095a7fffffffffffffffffffffffffffffffffffffffffffffffffffffffffffffffff84846200081c565b905092915050565b5f6200096e82620003cd565b91506200097b83620003cd565b92508282026200098b81620003cd565b91508282048414831517620009a557620009a462000789565b5b5092915050565b5f73ffffffffffffffffffffffffffffffffffffffff82169050919050565b5f620009d782620009ac565b9050919050565b620009e981620009cb565b82525050565b5f60208201905062000a045f830184620009de565b92915050565b5f62000a1682620003cd565b915062000a2383620003cd565b925082820190508082111562000a3e5762000a3d62000789565b5b92915050565b62000a4f81620003cd565b82525050565b5f60608201905062000a6a5f830186620009de565b62000a79602083018562000a44565b62000a88604083018462000a44565b949350505050565b5f60208201905062000aa55f83018462000a44565b92915050565b6112888062000ab95f395ff3fe6080604052600436106100a6575f3560e01c8063518ab2a811610063578063518ab2a8146101bc57806370a08231146101e65780637ff9b5961461022257806395d89b411461024c578063a9059cbb14610276578063dd62ed3e146102b2576100a6565b806306fdde03146100aa578063095ea7b3146100d457806318160ddd1461011057806323b872dd1461013a578063313ce567146101765780633610724e146101a0575b5f80fd5b3480156100b5575f80fd5b506100be6102ee565b6040516100cb9190610d15565b60405180910390f35b3480156100df575f80fd5b506100fa60048036038101906100f59190610dc6565b61037e565b6040516101079190610e1e565b60405180910390f35b34801561011b575f80fd5b506101246103a0565b6040516101319190610e46565b60405180910390f35b348015610145575f80fd5b50610160600480360381019061015b9190610e5f565b6103a9565b60405161016d9190610e1e565b60405180910390f35b348015610181575f80fd5b5061018a6103d7565b6040516101979190610eca565b60405180910390f35b6101ba60048036038101906101b59190610ee3565b6103df565b005b3480156101c7575f80fd5b506101d0610517565b6040516101dd9190610e46565b60405180910390f35b3480156101f1575f80fd5b5061020c60048036038101906102079190610f0e565b61051d565b6040516102199190610e46565b60405180910390f35b34801561022d575f80fd5b50610236610562565b6040516102439190610e46565b60405180910390f35b348015610257575f80fd5b50610260610568565b60405161026d9190610d15565b60405180910390f35b348015610281575f80fd5b5061029c60048036038101906102979190610dc6565b6105f8565b6040516102a99190610e1e565b60405180910390f35b3480156102bd575f80fd5b506102d860048036038101906102d39190610f39565b61061a565b6040516102e59190610e46565b60405180910390f35b6060600380546102fd90610fa4565b80601f016020809104026020016040519081016040528092919081815260200182805461032990610fa4565b80156103745780601f1061034b57610100808354040283529160200191610374565b820191905f5260205f20905b81548152906001019060200180831161035757829003601f168201915b5050505050905090565b5f8061038861069c565b90506103958185856106a3565b600191505092915050565b5f600254905090565b5f806103b361069c565b90506103c08582856106b5565b6103cb858585610747565b60019150509392505050565b5f6012905090565b6103eb81600554610837565b3410156103f6575f80fd5b803073ffffffffffffffffffffffffffffffffffffffff166370a08231306040518263ffffffff1660e01b81526004016104309190610fe3565b602060405180830381865afa15801561044b573d5f803e3d5ffd5b505050506040513d601f19601f8201168201806040525081019061046f9190611010565b1015610479575f80fd5b3073ffffffffffffffffffffffffffffffffffffffff1663a9059cbb33836040518363ffffffff1660e01b81526004016104b492919061103b565b6020604051808303815f875af11580156104d0573d5f803e3d5ffd5b505050506040513d601f19601f820116820180604052508101906104f4919061108c565b6104fc575f80fd5b8060065f82825461050d91906110e4565b9250508190555050565b60065481565b5f805f8373ffffffffffffffffffffffffffffffffffffffff1673ffffffffffffffffffffffffffffffffffffffff1681526020019081526020015f20549050919050565b60055481565b60606004805461057790610fa4565b80601f01602080910402602001604051908101604052809291908181526020018280546105a390610fa4565b80156105ee5780601f106105c5576101008083540402835291602001916105ee565b820191905f5260205f20905b8154815290600101906020018083116105d157829003601f168201915b5050505050905090565b5f8061060261069c565b905061060f818585610747565b600191505092915050565b5f60015f8473ffffffffffffffffffffffffffffffffffffffff1673ffffffffffffffffffffffffffffffffffffffff1681526020019081526020015f205f8373ffffffffffffffffffffffffffffffffffffffff1673ffffffffffffffffffffffffffffffffffffffff1681526020019081526020015f2054905092915050565b5f33905090565b6106b083838360016108a3565b505050565b5f6106c0848461061a565b90507fffffffffffffffffffffffffffffffffffffffffffffffffffffffffffffffff81146107415781811015610732578281836040517ffb8f41b200000000000000000000000000000000000000000000000000000000815260040161072993929190611117565b60405180910390fd5b61074084848484035f6108a3565b5b50505050565b5f73ffffffffffffffffffffffffffffffffffffffff168373ffffffffffffffffffffffffffffffffffffffff16036107b7575f6040517f96c6fd1e0000000000000000000000000000000000000000000000000000000081526004016107ae9190610fe3565b60405180910390fd5b5f73ffffffffffffffffffffffffffffffffffffffff168273ffffffffffffffffffffffffffffffffffffffff1603610827575f6040517fec442f0500000000000000000000000000000000000000000000000000000000815260040161081e9190610fe3565b60405180910390fd5b610832838383610a72565b505050565b5f8082148061085e57508282838561084f919061114c565b92508261085c91906111ba565b145b61089d576040517f08c379a000000000000000000000000000000000000000000000000000000000815260040161089490611234565b60405180910390fd5b92915050565b5f73ffffffffffffffffffffffffffffffffffffffff168473ffffffffffffffffffffffffffffffffffffffff1603610913575f6040517fe602df0500000000000000000000000000000000000000000000000000000000815260040161090a9190610fe3565b60405180910390fd5b5f73ffffffffffffffffffffffffffffffffffffffff168373ffffffffffffffffffffffffffffffffffffffff1603610983575f6040517f94280d6200000000000000000000000000000000000000000000000000000000815260040161097a9190610fe3565b60405180910390fd5b8160015f8673ffffffffffffffffffffffffffffffffffffffff1673ffffffffffffffffffffffffffffffffffffffff1681526020019081526020015f205f8573ffffffffffffffffffffffffffffffffffffffff1673ffffffffffffffffffffffffffffffffffffffff1681526020019081526020015f20819055508015610a6c578273ffffffffffffffffffffffffffffffffffffffff168473ffffffffffffffffffffffffffffffffffffffff167f8c5be1e5ebec7d5bd14f71427d1e84f3dd0314c0f7b2291e5b200ac8c7c3b92584604051610a639190610e46565b60405180910390a35b50505050565b5f73ffffffffffffffffffffffffffffffffffffffff168373ffffffffffffffffffffffffffffffffffffffff1603610ac2578060025f828254610ab691906110e4565b92505081905550610b90565b5f805f8573ffffffffffffffffffffffffffffffffffffffff1673ffffffffffffffffffffffffffffffffffffffff1681526020019081526020015f2054905081811015610b4b578381836040517fe450d38c000000000000000000000000000000000000000000000000000000008152600401610b4293929190611117565b60405180910390fd5b8181035f808673ffffffffffffffffffffffffffffffffffffffff1673ffffffffffffffffffffffffffffffffffffffff1681526020019081526020015f2081905550505b5f73ffffffffffffffffffffffffffffffffffffffff168273ffffffffffffffffffffffffffffffffffffffff1603610bd7578060025f8282540392505081905550610c21565b805f808473ffffffffffffffffffffffffffffffffffffffff1673ffffffffffffffffffffffffffffffffffffffff1681526020019081526020015f205f82825401925050819055505b8173ffffffffffffffffffffffffffffffffffffffff168373ffffffffffffffffffffffffffffffffffffffff167fddf252ad1be2c89b69c2b068fc378daa952ba7f163c4a11628f55a4df523b3ef83604051610c7e9190610e46565b60405180910390a3505050565b5f81519050919050565b5f82825260208201905092915050565b5f5b83811015610cc2578082015181840152602081019050610ca7565b5f8484015250505050565b5f601f19601f8301169050919050565b5f610ce782610c8b565b610cf18185610c95565b9350610d01818560208601610ca5565b610d0a81610ccd565b840191505092915050565b5f6020820190508181035f830152610d2d8184610cdd565b905092915050565b5f80fd5b5f73ffffffffffffffffffffffffffffffffffffffff82169050919050565b5f610d6282610d39565b9050919050565b610d7281610d58565b8114610d7c575f80fd5b50565b5f81359050610d8d81610d69565b92915050565b5f819050919050565b610da581610d93565b8114610daf575f80fd5b50565b5f81359050610dc081610d9c565b92915050565b5f8060408385031215610ddc57610ddb610d35565b5b5f610de985828601610d7f565b9250506020610dfa85828601610db2565b9150509250929050565b5f8115159050919050565b610e1881610e04565b82525050565b5f602082019050610e315f830184610e0f565b92915050565b610e4081610d93565b82525050565b5f602082019050610e595f830184610e37565b92915050565b5f805f60608486031215610e7657610e75610d35565b5b5f610e8386828701610d7f565b9350506020610e9486828701610d7f565b9250506040610ea586828701610db2565b9150509250925092565b5f60ff82169050919050565b610ec481610eaf565b82525050565b5f602082019050610edd5f830184610ebb565b92915050565b5f60208284031215610ef857610ef7610d35565b5b5f610f0584828501610db2565b91505092915050565b5f60208284031215610f2357610f22610d35565b5b5f610f3084828501610d7f565b91505092915050565b5f8060408385031215610f4f57610f4e610d35565b5b5f610f5c85828601610d7f565b9250506020610f6d85828601610d7f565b9150509250929050565b7f4e487b71000000000000000000000000000000000000000000000000000000005f52602260045260245ffd5b5f6002820490506001821680610fbb57607f821691505b602082108103610fce57610fcd610f77565b5b50919050565b610fdd81610d58565b82525050565b5f602082019050610ff65f830184610fd4565b92915050565b5f8151905061100a81610d9c565b92915050565b5f6020828403121561102557611024610d35565b5b5f61103284828501610ffc565b91505092915050565b5f60408201905061104e5f830185610fd4565b61105b6020830184610e37565b9392505050565b61106b81610e04565b8114611075575f80fd5b50565b5f8151905061108681611062565b92915050565b5f602082840312156110a1576110a0610d35565b5b5f6110ae84828501611078565b91505092915050565b7f4e487b71000000000000000000000000000000000000000000000000000000005f52601160045260245ffd5b5f6110ee82610d93565b91506110f983610d93565b9250828201905080821115611111576111106110b7565b5b92915050565b5f60608201905061112a5f830186610fd4565b6111376020830185610e37565b6111446040830184610e37565b949350505050565b5f61115682610d93565b915061116183610d93565b925082820261116f81610d93565b91508282048414831517611186576111856110b7565b5b5092915050565b7f4e487b71000000000000000000000000000000000000000000000000000000005f52601260045260245ffd5b5f6111c482610d93565b91506111cf83610d93565b9250826111df576111de61118d565b5b828204905092915050565b7f64732d6d6174682d6d756c2d6f766572666c6f770000000000000000000000005f82015250565b5f61121e601483610c95565b9150611229826111ea565b602082019050919050565b5f6020820190508181035f83015261124b81611212565b905091905056fea2646970667358221220aa1e370a88404833f8be33627c2ef6546b6fca148e4777a3098b9a03a62855cc64736f6c63430008140033",
  "immutableReferences": {},
  "source": "// SPDX-License-Identifier: MIT\npragma solidity ^0.8.19;\n\nimport \"@openzeppelin/contracts/token/ERC20/ERC20.sol\";\n\ncontract TokenABC is ERC20 {\n    uint256 public tokenPrice;\n    uint256 public tokensSold;\n\n    constructor(uint256 initialSupply, uint256 _tokenPrice)\n        ERC20(\"TokenABC\", \"ABC\")\n    {\n        tokenPrice = _tokenPrice;\n        _mint(address(this), initialSupply * 10**decimals());\n    }\n\n    function mul(uint256 x, uint256 y) internal pure returns (uint256 z) {\n        require(y == 0 || (z = x * y) / y == x, \"ds-math-mul-overflow\");\n    }\n\n    function buyTokens(uint256 numberOfTokens) external payable {\n        // keep track of number of tokens sold\n        // require that a contract have enough tokens\n        // require tha value sent is equal to token price\n        // trigger sell event\n        require(msg.value >= mul(numberOfTokens, tokenPrice));\n        require(this.balanceOf(address(this)) >= numberOfTokens);\n        require(this.transfer(msg.sender, numberOfTokens));\n\n        tokensSold += numberOfTokens;\n    }\n}",
  "sourcePath": "/Users/sandeepgautam/Desktop/tokenSwap1/contracts/TokenABC.sol",
  "compiler": {
    "name": "solc",
    "version": "0.8.20+commit.a1b79de6.Emscripten.clang"
  },
  "schemaVersion": "3.4.16",
  "updatedAt": "2024-02-08T07:55:38.537Z",
  "networkType": "ethereum",
  "devdoc": {
    "errors": {
      "ERC20InsufficientAllowance(address,uint256,uint256)": [
        {
          "details": "Indicates a failure with the `spender`s `allowance`. Used in transfers.",
          "params": {
            "allowance": "Amount of tokens a `spender` is allowed to operate with.",
            "needed": "Minimum amount required to perform a transfer.",
            "spender": "Address that may be allowed to operate on tokens without being their owner."
          }
        }
      ],
      "ERC20InsufficientBalance(address,uint256,uint256)": [
        {
          "details": "Indicates an error related to the current `balance` of a `sender`. Used in transfers.",
          "params": {
            "balance": "Current balance for the interacting account.",
            "needed": "Minimum amount required to perform a transfer.",
            "sender": "Address whose tokens are being transferred."
          }
        }
      ],
      "ERC20InvalidApprover(address)": [
        {
          "details": "Indicates a failure with the `approver` of a token to be approved. Used in approvals.",
          "params": {
            "approver": "Address initiating an approval operation."
          }
        }
      ],
      "ERC20InvalidReceiver(address)": [
        {
          "details": "Indicates a failure with the token `receiver`. Used in transfers.",
          "params": {
            "receiver": "Address to which tokens are being transferred."
          }
        }
      ],
      "ERC20InvalidSender(address)": [
        {
          "details": "Indicates a failure with the token `sender`. Used in transfers.",
          "params": {
            "sender": "Address whose tokens are being transferred."
          }
        }
      ],
      "ERC20InvalidSpender(address)": [
        {
          "details": "Indicates a failure with the `spender` to be approved. Used in approvals.",
          "params": {
            "spender": "Address that may be allowed to operate on tokens without being their owner."
          }
        }
      ]
    },
    "events": {
      "Approval(address,address,uint256)": {
        "details": "Emitted when the allowance of a `spender` for an `owner` is set by a call to {approve}. `value` is the new allowance."
      },
      "Transfer(address,address,uint256)": {
        "details": "Emitted when `value` tokens are moved from one account (`from`) to another (`to`). Note that `value` may be zero."
      }
    },
    "kind": "dev",
    "methods": {
      "allowance(address,address)": {
        "details": "See {IERC20-allowance}."
      },
      "approve(address,uint256)": {
        "details": "See {IERC20-approve}. NOTE: If `value` is the maximum `uint256`, the allowance is not updated on `transferFrom`. This is semantically equivalent to an infinite approval. Requirements: - `spender` cannot be the zero address."
      },
      "balanceOf(address)": {
        "details": "See {IERC20-balanceOf}."
      },
      "decimals()": {
        "details": "Returns the number of decimals used to get its user representation. For example, if `decimals` equals `2`, a balance of `505` tokens should be displayed to a user as `5.05` (`505 / 10 ** 2`). Tokens usually opt for a value of 18, imitating the relationship between Ether and Wei. This is the default value returned by this function, unless it's overridden. NOTE: This information is only used for _display_ purposes: it in no way affects any of the arithmetic of the contract, including {IERC20-balanceOf} and {IERC20-transfer}."
      },
      "name()": {
        "details": "Returns the name of the token."
      },
      "symbol()": {
        "details": "Returns the symbol of the token, usually a shorter version of the name."
      },
      "totalSupply()": {
        "details": "See {IERC20-totalSupply}."
      },
      "transfer(address,uint256)": {
        "details": "See {IERC20-transfer}. Requirements: - `to` cannot be the zero address. - the caller must have a balance of at least `value`."
      },
      "transferFrom(address,address,uint256)": {
        "details": "See {IERC20-transferFrom}. Emits an {Approval} event indicating the updated allowance. This is not required by the EIP. See the note at the beginning of {ERC20}. NOTE: Does not update the allowance if the current allowance is the maximum `uint256`. Requirements: - `from` and `to` cannot be the zero address. - `from` must have a balance of at least `value`. - the caller must have allowance for ``from``'s tokens of at least `value`."
      }
    },
    "version": 1
  },
  "userdoc": {
    "kind": "user",
    "methods": {},
    "version": 1
  }
}