{
  "contractName": "TokenSwap",
  "abi": [
    {
      "inputs": [
        {
          "internalType": "address",
          "name": "_tokenABC",
          "type": "address"
        },
        {
          "internalType": "address",
          "name": "_tokenXYZ",
          "type": "address"
        }
      ],
      "stateMutability": "nonpayable",
      "type": "constructor"
    },
    {
      "inputs": [],
      "name": "tokenABC",
      "outputs": [
        {
          "internalType": "contract TokenABC",
          "name": "",
          "type": "address"
        }
      ],
      "stateMutability": "view",
      "type": "function",
      "constant": true
    },
    {
      "inputs": [],
      "name": "tokenXYZ",
      "outputs": [
        {
          "internalType": "contract TokenXYZ",
          "name": "",
          "type": "address"
        }
      ],
      "stateMutability": "view",
      "type": "function",
      "constant": true
    },
    {
      "inputs": [
        {
          "internalType": "uint256",
          "name": "_ratio",
          "type": "uint256"
        }
      ],
      "name": "setRatio",
      "outputs": [],
      "stateMutability": "nonpayable",
      "type": "function"
    },
    {
      "inputs": [],
      "name": "getRatio",
      "outputs": [
        {
          "internalType": "uint256",
          "name": "",
          "type": "uint256"
        }
      ],
      "stateMutability": "view",
      "type": "function",
      "constant": true
    },
    {
      "inputs": [
        {
          "internalType": "uint256",
          "name": "_Fees",
          "type": "uint256"
        }
      ],
      "name": "setFees",
      "outputs": [],
      "stateMutability": "nonpayable",
      "type": "function"
    },
    {
      "inputs": [],
      "name": "getFees",
      "outputs": [
        {
          "internalType": "uint256",
          "name": "",
          "type": "uint256"
        }
      ],
      "stateMutability": "view",
      "type": "function",
      "constant": true
    },
    {
      "inputs": [
        {
          "internalType": "uint256",
          "name": "amountTKA",
          "type": "uint256"
        }
      ],
      "name": "swapTKA",
      "outputs": [
        {
          "internalType": "uint256",
          "name": "",
          "type": "uint256"
        }
      ],
      "stateMutability": "nonpayable",
      "type": "function"
    },
    {
      "inputs": [
        {
          "internalType": "uint256",
          "name": "amountTKX",
          "type": "uint256"
        }
      ],
      "name": "swapTKX",
      "outputs": [
        {
          "internalType": "uint256",
          "name": "",
          "type": "uint256"
        }
      ],
      "stateMutability": "nonpayable",
      "type": "function"
    },
    {
      "inputs": [
        {
          "internalType": "uint256",
          "name": "amount",
          "type": "uint256"
        }
      ],
      "name": "buyTokensABC",
      "outputs": [],
      "stateMutability": "payable",
      "type": "function",
      "payable": true
    },
    {
      "inputs": [
        {
          "internalType": "uint256",
          "name": "amount",
          "type": "uint256"
        }
      ],
      "name": "buyTokensXYZ",
      "outputs": [],
      "stateMutability": "payable",
      "type": "function",
      "payable": true
    }
  ],
  "bytecode": "0x608060405234801562000010575f80fd5b506040516200197d3803806200197d8339818101604052810190620000369190620003c6565b335f806101000a81548173ffffffffffffffffffffffffffffffffffffffff021916908373ffffffffffffffffffffffffffffffffffffffff1602179055508160045f6101000a81548173ffffffffffffffffffffffffffffffffffffffff021916908373ffffffffffffffffffffffffffffffffffffffff1602179055508060055f6101000a81548173ffffffffffffffffffffffffffffffffffffffff021916908373ffffffffffffffffffffffffffffffffffffffff16021790555060045f9054906101000a900473ffffffffffffffffffffffffffffffffffffffff1673ffffffffffffffffffffffffffffffffffffffff1663095ea7b33060045f9054906101000a900473ffffffffffffffffffffffffffffffffffffffff1673ffffffffffffffffffffffffffffffffffffffff166318160ddd6040518163ffffffff1660e01b8152600401602060405180830381865afa1580156200019e573d5f803e3d5ffd5b505050506040513d601f19601f82011682018060405250810190620001c4919062000443565b6040518363ffffffff1660e01b8152600401620001e392919062000495565b6020604051808303815f875af115801562000200573d5f803e3d5ffd5b505050506040513d601f19601f82011682018060405250810190620002269190620004fa565b5060055f9054906101000a900473ffffffffffffffffffffffffffffffffffffffff1673ffffffffffffffffffffffffffffffffffffffff1663095ea7b33060045f9054906101000a900473ffffffffffffffffffffffffffffffffffffffff1673ffffffffffffffffffffffffffffffffffffffff166318160ddd6040518163ffffffff1660e01b8152600401602060405180830381865afa158015620002d0573d5f803e3d5ffd5b505050506040513d601f19601f82011682018060405250810190620002f6919062000443565b6040518363ffffffff1660e01b81526004016200031592919062000495565b6020604051808303815f875af115801562000332573d5f803e3d5ffd5b505050506040513d601f19601f82011682018060405250810190620003589190620004fa565b5050506200052a565b5f80fd5b5f73ffffffffffffffffffffffffffffffffffffffff82169050919050565b5f620003908262000365565b9050919050565b620003a28162000384565b8114620003ad575f80fd5b50565b5f81519050620003c08162000397565b92915050565b5f8060408385031215620003df57620003de62000361565b5b5f620003ee85828601620003b0565b92505060206200040185828601620003b0565b9150509250929050565b5f819050919050565b6200041f816200040b565b81146200042a575f80fd5b50565b5f815190506200043d8162000414565b92915050565b5f602082840312156200045b576200045a62000361565b5b5f6200046a848285016200042d565b91505092915050565b6200047e8162000384565b82525050565b6200048f816200040b565b82525050565b5f604082019050620004aa5f83018562000473565b620004b9602083018462000484565b9392505050565b5f8115159050919050565b620004d681620004c0565b8114620004e1575f80fd5b50565b5f81519050620004f481620004cb565b92915050565b5f6020828403121562000512576200051162000361565b5b5f6200052184828501620004e4565b91505092915050565b61144580620005385f395ff3fe608060405260043610610090575f3560e01c8063ad20f47011610058578063ad20f47014610188578063b2237ba3146101a4578063db8d55f1146101cc578063ec1ebd7a146101f6578063f62b77d71461022057610090565b80633d18678e146100945780635f70662d146100bc5780637226d2c3146100e657806394e6d1a214610122578063aaea23821461015e575b5f80fd5b34801561009f575f80fd5b506100ba60048036038101906100b59190610d5a565b61023c565b005b3480156100c7575f80fd5b506100d0610251565b6040516100dd9190610dff565b60405180910390f35b3480156100f1575f80fd5b5061010c60048036038101906101079190610d5a565b610276565b6040516101199190610e27565b60405180910390f35b34801561012d575f80fd5b5061014860048036038101906101439190610d5a565b6106ca565b6040516101559190610e27565b60405180910390f35b348015610169575f80fd5b50610172610b25565b60405161017f9190610e60565b60405180910390f35b6101a2600480360381019061019d9190610d5a565b610b4a565b005b3480156101af575f80fd5b506101ca60048036038101906101c59190610d5a565b610be1565b005b3480156101d7575f80fd5b506101e0610bf6565b6040516101ed9190610e27565b60405180910390f35b348015610201575f80fd5b5061020a610c0b565b6040516102179190610e27565b60405180910390f35b61023a60048036038101906102359190610d5a565b610c20565b005b5f8054906101000a9050508060038190555050565b60055f9054906101000a900473ffffffffffffffffffffffffffffffffffffffff1681565b5f8082116102b9576040517f08c379a00000000000000000000000000000000000000000000000000000000081526004016102b090610ef9565b60405180910390fd5b8160045f9054906101000a900473ffffffffffffffffffffffffffffffffffffffff1673ffffffffffffffffffffffffffffffffffffffff166370a08231336040518263ffffffff1660e01b81526004016103149190610f37565b602060405180830381865afa15801561032f573d5f803e3d5ffd5b505050506040513d601f19601f820116820180604052508101906103539190610f64565b1015610394576040517f08c379a000000000000000000000000000000000000000000000000000000000815260040161038b90610fff565b60405180910390fd5b5f6103a183600154610cb7565b90505f60646103b283600354610cb7565b6103bc9190611077565b826103c791906110a7565b90505f811161040b576040517f08c379a00000000000000000000000000000000000000000000000000000000081526004016104029061114a565b60405180910390fd5b8060055f9054906101000a900473ffffffffffffffffffffffffffffffffffffffff1673ffffffffffffffffffffffffffffffffffffffff166370a08231306040518263ffffffff1660e01b81526004016104669190610f37565b602060405180830381865afa158015610481573d5f803e3d5ffd5b505050506040513d601f19601f820116820180604052508101906104a59190610f64565b116104e5576040517f08c379a00000000000000000000000000000000000000000000000000000000081526004016104dc906111fe565b60405180910390fd5b60045f9054906101000a900473ffffffffffffffffffffffffffffffffffffffff1673ffffffffffffffffffffffffffffffffffffffff166323b872dd3330876040518463ffffffff1660e01b81526004016105439392919061121c565b6020604051808303815f875af115801561055f573d5f803e3d5ffd5b505050506040513d601f19601f820116820180604052508101906105839190611286565b5060055f9054906101000a900473ffffffffffffffffffffffffffffffffffffffff1673ffffffffffffffffffffffffffffffffffffffff1663095ea7b333836040518363ffffffff1660e01b81526004016105e09291906112b1565b6020604051808303815f875af11580156105fc573d5f803e3d5ffd5b505050506040513d601f19601f820116820180604052508101906106209190611286565b5060055f9054906101000a900473ffffffffffffffffffffffffffffffffffffffff1673ffffffffffffffffffffffffffffffffffffffff166323b872dd3033846040518463ffffffff1660e01b815260040161067f9392919061121c565b6020604051808303815f875af115801561069b573d5f803e3d5ffd5b505050506040513d601f19601f820116820180604052508101906106bf9190611286565b508092505050919050565b5f600154821015610710576040517f08c379a000000000000000000000000000000000000000000000000000000000815260040161070790611348565b60405180910390fd5b8160055f9054906101000a900473ffffffffffffffffffffffffffffffffffffffff1673ffffffffffffffffffffffffffffffffffffffff166370a08231336040518263ffffffff1660e01b815260040161076b9190610f37565b602060405180830381865afa158015610786573d5f803e3d5ffd5b505050506040513d601f19601f820116820180604052508101906107aa9190610f64565b10156107eb576040517f08c379a00000000000000000000000000000000000000000000000000000000081526004016107e290610fff565b60405180910390fd5b5f600154836107fa9190611077565b90505f60646003548361080d9190611366565b6108179190611077565b8261082291906110a7565b90505f8111610866576040517f08c379a000000000000000000000000000000000000000000000000000000000815260040161085d9061114a565b60405180910390fd5b8060045f9054906101000a900473ffffffffffffffffffffffffffffffffffffffff1673ffffffffffffffffffffffffffffffffffffffff166370a08231306040518263ffffffff1660e01b81526004016108c19190610f37565b602060405180830381865afa1580156108dc573d5f803e3d5ffd5b505050506040513d601f19601f820116820180604052508101906109009190610f64565b11610940576040517f08c379a0000000000000000000000000000000000000000000000000000000008152600401610937906111fe565b60405180910390fd5b60055f9054906101000a900473ffffffffffffffffffffffffffffffffffffffff1673ffffffffffffffffffffffffffffffffffffffff166323b872dd3330876040518463ffffffff1660e01b815260040161099e9392919061121c565b6020604051808303815f875af11580156109ba573d5f803e3d5ffd5b505050506040513d601f19601f820116820180604052508101906109de9190611286565b5060045f9054906101000a900473ffffffffffffffffffffffffffffffffffffffff1673ffffffffffffffffffffffffffffffffffffffff1663095ea7b333836040518363ffffffff1660e01b8152600401610a3b9291906112b1565b6020604051808303815f875af1158015610a57573d5f803e3d5ffd5b505050506040513d601f19601f82011682018060405250810190610a7b9190611286565b5060045f9054906101000a900473ffffffffffffffffffffffffffffffffffffffff1673ffffffffffffffffffffffffffffffffffffffff166323b872dd3033846040518463ffffffff1660e01b8152600401610ada9392919061121c565b6020604051808303815f875af1158015610af6573d5f803e3d5ffd5b505050506040513d601f19601f82011682018060405250810190610b1a9190611286565b508092505050919050565b60045f9054906101000a900473ffffffffffffffffffffffffffffffffffffffff1681565b5f8054906101000a90505060045f9054906101000a900473ffffffffffffffffffffffffffffffffffffffff1673ffffffffffffffffffffffffffffffffffffffff16633610724e34836040518363ffffffff1660e01b8152600401610bb09190610e27565b5f604051808303818588803b158015610bc7575f80fd5b505af1158015610bd9573d5f803e3d5ffd5b505050505050565b5f8054906101000a9050508060018190555050565b5f805f9054906101000a905050600354905090565b5f805f9054906101000a905050600154905090565b5f8054906101000a90505060055f9054906101000a900473ffffffffffffffffffffffffffffffffffffffff1673ffffffffffffffffffffffffffffffffffffffff16633610724e34836040518363ffffffff1660e01b8152600401610c869190610e27565b5f604051808303818588803b158015610c9d575f80fd5b505af1158015610caf573d5f803e3d5ffd5b505050505050565b5f80821480610cde575082828385610ccf9190611366565b925082610cdc9190611077565b145b610d1d576040517f08c379a0000000000000000000000000000000000000000000000000000000008152600401610d14906113f1565b60405180910390fd5b92915050565b5f80fd5b5f819050919050565b610d3981610d27565b8114610d43575f80fd5b50565b5f81359050610d5481610d30565b92915050565b5f60208284031215610d6f57610d6e610d23565b5b5f610d7c84828501610d46565b91505092915050565b5f73ffffffffffffffffffffffffffffffffffffffff82169050919050565b5f819050919050565b5f610dc7610dc2610dbd84610d85565b610da4565b610d85565b9050919050565b5f610dd882610dad565b9050919050565b5f610de982610dce565b9050919050565b610df981610ddf565b82525050565b5f602082019050610e125f830184610df0565b92915050565b610e2181610d27565b82525050565b5f602082019050610e3a5f830184610e18565b92915050565b5f610e4a82610dce565b9050919050565b610e5a81610e40565b82525050565b5f602082019050610e735f830184610e51565b92915050565b5f82825260208201905092915050565b7f616d6f756e74544b41206d7573742062652067726561746572207468656e207a5f8201527f65726f0000000000000000000000000000000000000000000000000000000000602082015250565b5f610ee3602383610e79565b9150610eee82610e89565b604082019050919050565b5f6020820190508181035f830152610f1081610ed7565b9050919050565b5f610f2182610d85565b9050919050565b610f3181610f17565b82525050565b5f602082019050610f4a5f830184610f28565b92915050565b5f81519050610f5e81610d30565b92915050565b5f60208284031215610f7957610f78610d23565b5b5f610f8684828501610f50565b91505092915050565b7f73656e64657220646f65736e2774206861766520656e6f75676820546f6b656e5f8201527f7300000000000000000000000000000000000000000000000000000000000000602082015250565b5f610fe9602183610e79565b9150610ff482610f8f565b604082019050919050565b5f6020820190508181035f83015261101681610fdd565b9050919050565b7f4e487b71000000000000000000000000000000000000000000000000000000005f52601260045260245ffd5b7f4e487b71000000000000000000000000000000000000000000000000000000005f52601160045260245ffd5b5f61108182610d27565b915061108c83610d27565b92508261109c5761109b61101d565b5b828204905092915050565b5f6110b182610d27565b91506110bc83610d27565b92508282039050818111156110d4576110d361104a565b5b92915050565b7f65786368616e676520416d6f756e74206d7573742062652067726561746572205f8201527f7468656e207a65726f0000000000000000000000000000000000000000000000602082015250565b5f611134602983610e79565b915061113f826110da565b604082019050919050565b5f6020820190508181035f83015261116181611128565b9050919050565b7f63757272656e746c79207468652065786368616e676520646f65736e742068615f8201527f766520656e6f7567682058595a20546f6b656e732c20706c656173652072657460208201527f7279206c61746572203a3d280000000000000000000000000000000000000000604082015250565b5f6111e8604c83610e79565b91506111f382611168565b606082019050919050565b5f6020820190508181035f830152611215816111dc565b9050919050565b5f60608201905061122f5f830186610f28565b61123c6020830185610f28565b6112496040830184610e18565b949350505050565b5f8115159050919050565b61126581611251565b811461126f575f80fd5b50565b5f815190506112808161125c565b92915050565b5f6020828403121561129b5761129a610d23565b5b5f6112a884828501611272565b91505092915050565b5f6040820190506112c45f830185610f28565b6112d16020830184610e18565b9392505050565b7f616d6f756e74544b58206d7573742062652067726561746572207468656e20725f8201527f6174696f00000000000000000000000000000000000000000000000000000000602082015250565b5f611332602483610e79565b915061133d826112d8565b604082019050919050565b5f6020820190508181035f83015261135f81611326565b9050919050565b5f61137082610d27565b915061137b83610d27565b925082820261138981610d27565b915082820484148315176113a05761139f61104a565b5b5092915050565b7f64732d6d6174682d6d756c2d6f766572666c6f770000000000000000000000005f82015250565b5f6113db601483610e79565b91506113e6826113a7565b602082019050919050565b5f6020820190508181035f830152611408816113cf565b905091905056fea264697066735822122064d9fa5e7ef51a6386e224468840d25cc4c3c62090ced652afcd1dff7dceb51864736f6c63430008140033",
  "immutableReferences": {},
  "source": "// SPDX-License-Identifier: MIT\npragma solidity ^0.8.19;\n\nimport \"@openzeppelin/contracts/token/ERC20/ERC20.sol\";\nimport \"./TokenABC.sol\";\nimport \"./TokenXYZ.sol\";\n\n\n// this contract should be deployed after the deployment of the two contracts TokenABC and TokenXYZ\n// as instrcuted in the 2_deploy_contracts file\ncontract TokenSwap {\n    address payable admin;\n    //ratioAX is the percentage of how much TokenA is worth of TokenX\n    uint256 ratioAX;\n    bool AcheaperthenX;\n    uint256 fees;\n    TokenABC public tokenABC;\n    TokenXYZ public tokenXYZ;\n\n    constructor(address _tokenABC, address _tokenXYZ) {\n        admin = payable(msg.sender);\n        tokenABC = TokenABC(_tokenABC);\n        tokenXYZ = TokenXYZ(_tokenXYZ);\n        //due to openzeppelin implementation, transferFrom function implementation expects _msgSender() to be the beneficiary from the caller\n        // but in this use cae we are using this contract to transfer so its always checking the allowance of SELF\n        tokenABC.approve(address(this), tokenABC.totalSupply());\n        tokenXYZ.approve(address(this), tokenABC.totalSupply());\n    }\n\n    modifier onlyAdmin() {\n        payable(msg.sender) == admin;\n        _;\n    }\n\n    function setRatio(uint256 _ratio) public onlyAdmin {\n        ratioAX = _ratio;\n    }\n\n    function getRatio() public view onlyAdmin returns (uint256) {\n        return ratioAX;\n    }\n\n    function setFees(uint256 _Fees) public onlyAdmin {\n        fees = _Fees;\n    }\n\n    function getFees() public view onlyAdmin returns (uint256) {\n        return fees;\n    }\n\n    // accepts amount of TokenABC and exchenge it for TokenXYZ, vice versa with function swapTKX\n    // transfer tokensABC from sender to smart contract after the user has approved the smart contract to\n    // withdraw amount TKA from his account, this is a better solution since it is more open and gives the\n    // control to the user over what calls are transfered instead of inspecting the smart contract\n    // approve the caller to transfer one time from the smart contract address to his address\n    // transfer the exchanged TokenXYZ to the sender\n    function swapTKA(uint256 amountTKA) public returns (uint256) {\n        //check if amount given is not 0\n        // check if current contract has the necessary amout of Tokens to exchange\n        require(amountTKA > 0, \"amountTKA must be greater then zero\");\n        require(\n            tokenABC.balanceOf(msg.sender) >= amountTKA,\n            \"sender doesn't have enough Tokens\"\n        );\n\n        uint256 exchangeA = uint256(mul(amountTKA, ratioAX));\n        uint256 exchangeAmount = exchangeA -\n            uint256((mul(exchangeA, fees)) / 100);\n        require(\n            exchangeAmount > 0,\n            \"exchange Amount must be greater then zero\"\n        );\n\n        require(\n            tokenXYZ.balanceOf(address(this)) > exchangeAmount,\n            \"currently the exchange doesnt have enough XYZ Tokens, please retry later :=(\"\n        );\n\n        tokenABC.transferFrom(msg.sender, address(this), amountTKA);\n        tokenXYZ.approve(address(msg.sender), exchangeAmount);\n        tokenXYZ.transferFrom(\n            address(this),\n            address(msg.sender),\n            exchangeAmount\n        );\n        return exchangeAmount;\n    }\n\n    function swapTKX(uint256 amountTKX) public returns (uint256) {\n        //check if amount given is not 0\n        // check if current contract has the necessary amout of Tokens to exchange and the sender\n        require(amountTKX >= ratioAX, \"amountTKX must be greater then ratio\");\n        require(\n            tokenXYZ.balanceOf(msg.sender) >= amountTKX,\n            \"sender doesn't have enough Tokens\"\n        );\n\n        uint256 exchangeA = amountTKX / ratioAX;\n        uint256 exchangeAmount = exchangeA - ((exchangeA * fees) / 100);\n\n        require(\n            exchangeAmount > 0,\n            \"exchange Amount must be greater then zero\"\n        );\n\n        require(\n            tokenABC.balanceOf(address(this)) > exchangeAmount,\n            \"currently the exchange doesnt have enough XYZ Tokens, please retry later :=(\"\n        );\n        tokenXYZ.transferFrom(msg.sender, address(this), amountTKX);\n        tokenABC.approve(address(msg.sender), exchangeAmount);\n        tokenABC.transferFrom(\n            address(this),\n            address(msg.sender),\n            exchangeAmount\n        );\n        return exchangeAmount;\n    }\n\n    //leting the Admin of the TokenSwap to buyTokens manually is preferable and better then letting the contract\n    // buy automatically tokens since contracts are immutable and in case the value of some tokens beomes\n    // worthless its better to not to do any exchange at all\n    function buyTokensABC(uint256 amount) public payable onlyAdmin {\n        tokenABC.buyTokens{value: msg.value}(amount);\n    }\n\n    function buyTokensXYZ(uint256 amount) public payable onlyAdmin {\n        tokenXYZ.buyTokens{value: msg.value}(amount);\n    }\n\n    function mul(uint256 x, uint256 y) internal pure returns (uint256 z) {\n        require(y == 0 || (z = x * y) / y == x, \"ds-math-mul-overflow\");\n    }\n}",
  "sourcePath": "/Users/sandeepgautam/Desktop/tokenSwap1/contracts/TokenSwap.sol",
  "compiler": {
    "name": "solc",
    "version": "0.8.20+commit.a1b79de6.Emscripten.clang"
  },
  "schemaVersion": "3.4.16",
  "updatedAt": "2024-02-08T07:55:38.562Z",
  "networkType": "ethereum",
  "devdoc": {
    "kind": "dev",
    "methods": {},
    "version": 1
  },
  "userdoc": {
    "kind": "user",
    "methods": {},
    "version": 1
  }
}