{
  "contractName": "TokenXYZ",
  "abi": [
    {
      "inputs": [
        {
          "internalType": "uint256",
          "name": "initialSupply",
          "type": "uint256"
        },
        {
          "internalType": "uint256",
          "name": "_tokenPrice",
          "type": "uint256"
        }
      ],
      "stateMutability": "nonpayable",
      "type": "constructor"
    },
    {
      "inputs": [
        {
          "internalType": "address",
          "name": "spender",
          "type": "address"
        },
        {
          "internalType": "uint256",
          "name": "allowance",
          "type": "uint256"
        },
        {
          "internalType": "uint256",
          "name": "needed",
          "type": "uint256"
        }
      ],
      "name": "ERC20InsufficientAllowance",
      "type": "error"
    },
    {
      "inputs": [
        {
          "internalType": "address",
          "name": "sender",
          "type": "address"
        },
        {
          "internalType": "uint256",
          "name": "balance",
          "type": "uint256"
        },
        {
          "internalType": "uint256",
          "name": "needed",
          "type": "uint256"
        }
      ],
      "name": "ERC20InsufficientBalance",
      "type": "error"
    },
    {
      "inputs": [
        {
          "internalType": "address",
          "name": "approver",
          "type": "address"
        }
      ],
      "name": "ERC20InvalidApprover",
      "type": "error"
    },
    {
      "inputs": [
        {
          "internalType": "address",
          "name": "receiver",
          "type": "address"
        }
      ],
      "name": "ERC20InvalidReceiver",
      "type": "error"
    },
    {
      "inputs": [
        {
          "internalType": "address",
          "name": "sender",
          "type": "address"
        }
      ],
      "name": "ERC20InvalidSender",
      "type": "error"
    },
    {
      "inputs": [
        {
          "internalType": "address",
          "name": "spender",
          "type": "address"
        }
      ],
      "name": "ERC20InvalidSpender",
      "type": "error"
    },
    {
      "anonymous": false,
      "inputs": [
        {
          "indexed": true,
          "internalType": "address",
          "name": "owner",
          "type": "address"
        },
        {
          "indexed": true,
          "internalType": "address",
          "name": "spender",
          "type": "address"
        },
        {
          "indexed": false,
          "internalType": "uint256",
          "name": "value",
          "type": "uint256"
        }
      ],
      "name": "Approval",
      "type": "event"
    },
    {
      "anonymous": false,
      "inputs": [
        {
          "indexed": true,
          "internalType": "address",
          "name": "from",
          "type": "address"
        },
        {
          "indexed": true,
          "internalType": "address",
          "name": "to",
          "type": "address"
        },
        {
          "indexed": false,
          "internalType": "uint256",
          "name": "value",
          "type": "uint256"
        }
      ],
      "name": "Transfer",
      "type": "event"
    },
    {
      "inputs": [
        {
          "internalType": "address",
          "name": "owner",
          "type": "address"
        },
        {
          "internalType": "address",
          "name": "spender",
          "type": "address"
        }
      ],
      "name": "allowance",
      "outputs": [
        {
          "internalType": "uint256",
          "name": "",
          "type": "uint256"
        }
      ],
      "stateMutability": "view",
      "type": "function",
      "constant": true
    },
    {
      "inputs": [
        {
          "internalType": "address",
          "name": "spender",
          "type": "address"
        },
        {
          "internalType": "uint256",
          "name": "value",
          "type": "uint256"
        }
      ],
      "name": "approve",
      "outputs": [
        {
          "internalType": "bool",
          "name": "",
          "type": "bool"
        }
      ],
      "stateMutability": "nonpayable",
      "type": "function"
    },
    {
      "inputs": [
        {
          "internalType": "address",
          "name": "account",
          "type": "address"
        }
      ],
      "name": "balanceOf",
      "outputs": [
        {
          "internalType": "uint256",
          "name": "",
          "type": "uint256"
        }
      ],
      "stateMutability": "view",
      "type": "function",
      "constant": true
    },
    {
      "inputs": [],
      "name": "decimals",
      "outputs": [
        {
          "internalType": "uint8",
          "name": "",
          "type": "uint8"
        }
      ],
      "stateMutability": "view",
      "type": "function",
      "constant": true
    },
    {
      "inputs": [],
      "name": "name",
      "outputs": [
        {
          "internalType": "string",
          "name": "",
          "type": "string"
        }
      ],
      "stateMutability": "view",
      "type": "function",
      "constant": true
    },
    {
      "inputs": [],
      "name": "symbol",
      "outputs": [
        {
          "internalType": "string",
          "name": "",
          "type": "string"
        }
      ],
      "stateMutability": "view",
      "type": "function",
      "constant": true
    },
    {
      "inputs": [],
      "name": "tokenPrice",
      "outputs": [
        {
          "internalType": "uint256",
          "name": "",
          "type": "uint256"
        }
      ],
      "stateMutability": "view",
      "type": "function",
      "constant": true
    },
    {
      "inputs": [],
      "name": "tokensSold",
      "outputs": [
        {
          "internalType": "uint256",
          "name": "",
          "type": "uint256"
        }
      ],
      "stateMutability": "view",
      "type": "function",
      "constant": true
    },
    {
      "inputs": [],
      "name": "totalSupply",
      "outputs": [
        {
          "internalType": "uint256",
          "name": "",
          "type": "uint256"
        }
      ],
      "stateMutability": "view",
      "type": "function",
      "constant": true
    },
    {
      "inputs": [
        {
          "internalType": "address",
          "name": "to",
          "type": "address"
        },
        {
          "internalType": "uint256",
          "name": "value",
          "type": "uint256"
        }
      ],
      "name": "transfer",
      "outputs": [
        {
          "internalType": "bool",
          "name": "",
          "type": "bool"
        }
      ],
      "stateMutability": "nonpayable",
      "type": "function"
    },
    {
      "inputs": [
        {
          "internalType": "address",
          "name": "from",
          "type": "address"
        },
        {
          "internalType": "address",
          "name": "to",
          "type": "address"
        },
        {
          "internalType": "uint256",
          "name": "value",
          "type": "uint256"
        }
      ],
      "name": "transferFrom",
      "outputs": [
        {
          "internalType": "bool",
          "name": "",
          "type": "bool"
        }
      ],
      "stateMutability": "nonpayable",
      "type": "function"
    },
    {
      "inputs": [
        {
          "internalType": "uint256",
          "name": "numberOfTokens",
          "type": "uint256"
        }
      ],
      "name": "buyTokens",
      "outputs": [],
      "stateMutability": "payable",
      "type": "function",
      "payable": true
    }
  ],
  "bytecode": "0x608060405234801562000010575f80fd5b5060405162000ed238038062000ed2833981016040819052620000339162000234565b60405180604001604052806008815260200167546f6b656e41424360c01b8152506040518060400160405280600381526020016241424360e81b8152508160039081620000819190620002f7565b506004620000908282620002f7565b5050506005819055620000bd30620000ab6012600a620004ce565b620000b79085620004e5565b620000c5565b505062000515565b6001600160a01b038216620000f45760405163ec442f0560e01b81525f60048201526024015b60405180910390fd5b620001015f838362000105565b5050565b6001600160a01b03831662000133578060025f828254620001279190620004ff565b90915550620001a59050565b6001600160a01b0383165f9081526020819052604090205481811015620001875760405163391434e360e21b81526001600160a01b03851660048201526024810182905260448101839052606401620000eb565b6001600160a01b0384165f9081526020819052604090209082900390555b6001600160a01b038216620001c357600280548290039055620001e1565b6001600160a01b0382165f9081526020819052604090208054820190555b816001600160a01b0316836001600160a01b03167fddf252ad1be2c89b69c2b068fc378daa952ba7f163c4a11628f55a4df523b3ef836040516200022791815260200190565b60405180910390a3505050565b5f806040838503121562000246575f80fd5b505080516020909101519092909150565b634e487b7160e01b5f52604160045260245ffd5b600181811c908216806200028057607f821691505b6020821081036200029f57634e487b7160e01b5f52602260045260245ffd5b50919050565b601f821115620002f2575f81815260208120601f850160051c81016020861015620002cd5750805b601f850160051c820191505b81811015620002ee57828155600101620002d9565b5050505b505050565b81516001600160401b0381111562000313576200031362000257565b6200032b816200032484546200026b565b84620002a5565b602080601f83116001811462000361575f8415620003495750858301515b5f19600386901b1c1916600185901b178555620002ee565b5f85815260208120601f198616915b82811015620003915788860151825594840194600190910190840162000370565b5085821015620003af57878501515f19600388901b60f8161c191681555b5050505050600190811b01905550565b634e487b7160e01b5f52601160045260245ffd5b600181815b808511156200041357815f1904821115620003f757620003f7620003bf565b808516156200040557918102915b93841c9390800290620003d8565b509250929050565b5f826200042b57506001620004c8565b816200043957505f620004c8565b81600181146200045257600281146200045d576200047d565b6001915050620004c8565b60ff841115620004715762000471620003bf565b50506001821b620004c8565b5060208310610133831016604e8410600b8410161715620004a2575081810a620004c8565b620004ae8383620003d3565b805f1904821115620004c457620004c4620003bf565b0290505b92915050565b5f620004de60ff8416836200041b565b9392505050565b8082028115828204841417620004c857620004c8620003bf565b80820180821115620004c857620004c8620003bf565b6109af80620005235f395ff3fe6080604052600436106100a5575f3560e01c8063518ab2a811610062578063518ab2a81461016f57806370a08231146101845780637ff9b596146101b857806395d89b41146101cd578063a9059cbb146101e1578063dd62ed3e14610200575f80fd5b806306fdde03146100a9578063095ea7b3146100d357806318160ddd1461010257806323b872dd14610120578063313ce5671461013f5780633610724e1461015a575b5f80fd5b3480156100b4575f80fd5b506100bd610244565b6040516100ca919061077f565b60405180910390f35b3480156100de575f80fd5b506100f26100ed3660046107e5565b6102d4565b60405190151581526020016100ca565b34801561010d575f80fd5b506002545b6040519081526020016100ca565b34801561012b575f80fd5b506100f261013a36600461080d565b6102ed565b34801561014a575f80fd5b50604051601281526020016100ca565b61016d610168366004610846565b610310565b005b34801561017a575f80fd5b5061011260065481565b34801561018f575f80fd5b5061011261019e36600461085d565b6001600160a01b03165f9081526020819052604090205490565b3480156101c3575f80fd5b5061011260055481565b3480156101d8575f80fd5b506100bd610416565b3480156101ec575f80fd5b506100f26101fb3660046107e5565b610425565b34801561020b575f80fd5b5061011261021a36600461087d565b6001600160a01b039182165f90815260016020908152604080832093909416825291909152205490565b606060038054610253906108ae565b80601f016020809104026020016040519081016040528092919081815260200182805461027f906108ae565b80156102ca5780601f106102a1576101008083540402835291602001916102ca565b820191905f5260205f20905b8154815290600101906020018083116102ad57829003601f168201915b5050505050905090565b5f336102e1818585610432565b60019150505b92915050565b5f336102fa858285610444565b6103058585856104c4565b506001949350505050565b61031c81600554610521565b341015610327575f80fd5b6040516370a0823160e01b8152306004820181905282916370a0823190602401602060405180830381865afa158015610362573d5f803e3d5ffd5b505050506040513d601f19601f8201168201806040525081019061038691906108e6565b1015610390575f80fd5b60405163a9059cbb60e01b815233600482015260248101829052309063a9059cbb906044016020604051808303815f875af11580156103d1573d5f803e3d5ffd5b505050506040513d601f19601f820116820180604052508101906103f591906108fd565b6103fd575f80fd5b8060065f82825461040e9190610930565b909155505050565b606060048054610253906108ae565b5f336102e18185856104c4565b61043f8383836001610587565b505050565b6001600160a01b038381165f908152600160209081526040808320938616835292905220545f1981146104be57818110156104b057604051637dc7a0d960e11b81526001600160a01b038416600482015260248101829052604481018390526064015b60405180910390fd5b6104be84848484035f610587565b50505050565b6001600160a01b0383166104ed57604051634b637e8f60e11b81525f60048201526024016104a7565b6001600160a01b0382166105165760405163ec442f0560e01b81525f60048201526024016104a7565b61043f838383610659565b5f811580610544575082826105368183610943565b9250610542908361095a565b145b6102e75760405162461bcd60e51b815260206004820152601460248201527364732d6d6174682d6d756c2d6f766572666c6f7760601b60448201526064016104a7565b6001600160a01b0384166105b05760405163e602df0560e01b81525f60048201526024016104a7565b6001600160a01b0383166105d957604051634a1406b160e11b81525f60048201526024016104a7565b6001600160a01b038085165f90815260016020908152604080832093871683529290522082905580156104be57826001600160a01b0316846001600160a01b03167f8c5be1e5ebec7d5bd14f71427d1e84f3dd0314c0f7b2291e5b200ac8c7c3b9258460405161064b91815260200190565b60405180910390a350505050565b6001600160a01b038316610683578060025f8282546106789190610930565b909155506106f39050565b6001600160a01b0383165f90815260208190526040902054818110156106d55760405163391434e360e21b81526001600160a01b038516600482015260248101829052604481018390526064016104a7565b6001600160a01b0384165f9081526020819052604090209082900390555b6001600160a01b03821661070f5760028054829003905561072d565b6001600160a01b0382165f9081526020819052604090208054820190555b816001600160a01b0316836001600160a01b03167fddf252ad1be2c89b69c2b068fc378daa952ba7f163c4a11628f55a4df523b3ef8360405161077291815260200190565b60405180910390a3505050565b5f6020808352835180828501525f5b818110156107aa5785810183015185820160400152820161078e565b505f604082860101526040601f19601f8301168501019250505092915050565b80356001600160a01b03811681146107e0575f80fd5b919050565b5f80604083850312156107f6575f80fd5b6107ff836107ca565b946020939093013593505050565b5f805f6060848603121561081f575f80fd5b610828846107ca565b9250610836602085016107ca565b9150604084013590509250925092565b5f60208284031215610856575f80fd5b5035919050565b5f6020828403121561086d575f80fd5b610876826107ca565b9392505050565b5f806040838503121561088e575f80fd5b610897836107ca565b91506108a5602084016107ca565b90509250929050565b600181811c908216806108c257607f821691505b6020821081036108e057634e487b7160e01b5f52602260045260245ffd5b50919050565b5f602082840312156108f6575f80fd5b5051919050565b5f6020828403121561090d575f80fd5b81518015158114610876575f80fd5b634e487b7160e01b5f52601160045260245ffd5b808201808211156102e7576102e761091c565b80820281158282048414176102e7576102e761091c565b5f8261097457634e487b7160e01b5f52601260045260245ffd5b50049056fea2646970667358221220b1c9881d18d9f802111a033c9ac59e9f75e1b955b7a0fc2284ccf4124c5ce74f64736f6c63430008140033",
  "immutableReferences": {},
  "source": "// SPDX-License-Identifier: MIT\npragma solidity ^0.8.0;\n\nimport \"@openzeppelin/contracts/token/ERC20/ERC20.sol\";\n\ncontract TokenXYZ is ERC20 {\n    uint256 public tokenPrice;\n    uint256 public tokensSold;\n\n    constructor(uint256 initialSupply, uint256 _tokenPrice)\n        ERC20(\"TokenABC\", \"ABC\")\n    {\n        tokenPrice = _tokenPrice;\n        _mint(address(this), initialSupply * 10**decimals());\n    }\n\n    function mul(uint256 x, uint256 y) internal pure returns (uint256 z) {\n        require(y == 0 || (z = x * y) / y == x, \"ds-math-mul-overflow\");\n    }\n\n    function buyTokens(uint256 numberOfTokens) external payable {\n        // keep track of number of tokens sold\n        // require that a contract have enough tokens\n        // require tha value sent is equal to token price\n        // trigger sell event\n        require(msg.value >= mul(numberOfTokens, tokenPrice));\n        require(this.balanceOf(address(this)) >= numberOfTokens);\n        require(this.transfer(msg.sender, numberOfTokens));\n\n        tokensSold += numberOfTokens;\n    }\n}",
  "sourcePath": "/Users/sandeepgautam/Desktop/tokenSwap1/contracts/TokenXYZ.sol",
  "compiler": {
    "name": "solc",
    "version": "0.8.20+commit.a1b79de6.Emscripten.clang"
  },
  "schemaVersion": "3.4.16",
  "updatedAt": "2024-02-07T20:18:38.657Z",
  "networkType": "ethereum",
  "devdoc": {
    "errors": {
      "ERC20InsufficientAllowance(address,uint256,uint256)": [
        {
          "details": "Indicates a failure with the `spender`s `allowance`. Used in transfers.",
          "params": {
            "allowance": "Amount of tokens a `spender` is allowed to operate with.",
            "needed": "Minimum amount required to perform a transfer.",
            "spender": "Address that may be allowed to operate on tokens without being their owner."
          }
        }
      ],
      "ERC20InsufficientBalance(address,uint256,uint256)": [
        {
          "details": "Indicates an error related to the current `balance` of a `sender`. Used in transfers.",
          "params": {
            "balance": "Current balance for the interacting account.",
            "needed": "Minimum amount required to perform a transfer.",
            "sender": "Address whose tokens are being transferred."
          }
        }
      ],
      "ERC20InvalidApprover(address)": [
        {
          "details": "Indicates a failure with the `approver` of a token to be approved. Used in approvals.",
          "params": {
            "approver": "Address initiating an approval operation."
          }
        }
      ],
      "ERC20InvalidReceiver(address)": [
        {
          "details": "Indicates a failure with the token `receiver`. Used in transfers.",
          "params": {
            "receiver": "Address to which tokens are being transferred."
          }
        }
      ],
      "ERC20InvalidSender(address)": [
        {
          "details": "Indicates a failure with the token `sender`. Used in transfers.",
          "params": {
            "sender": "Address whose tokens are being transferred."
          }
        }
      ],
      "ERC20InvalidSpender(address)": [
        {
          "details": "Indicates a failure with the `spender` to be approved. Used in approvals.",
          "params": {
            "spender": "Address that may be allowed to operate on tokens without being their owner."
          }
        }
      ]
    },
    "events": {
      "Approval(address,address,uint256)": {
        "details": "Emitted when the allowance of a `spender` for an `owner` is set by a call to {approve}. `value` is the new allowance."
      },
      "Transfer(address,address,uint256)": {
        "details": "Emitted when `value` tokens are moved from one account (`from`) to another (`to`). Note that `value` may be zero."
      }
    },
    "kind": "dev",
    "methods": {
      "allowance(address,address)": {
        "details": "See {IERC20-allowance}."
      },
      "approve(address,uint256)": {
        "details": "See {IERC20-approve}. NOTE: If `value` is the maximum `uint256`, the allowance is not updated on `transferFrom`. This is semantically equivalent to an infinite approval. Requirements: - `spender` cannot be the zero address."
      },
      "balanceOf(address)": {
        "details": "See {IERC20-balanceOf}."
      },
      "decimals()": {
        "details": "Returns the number of decimals used to get its user representation. For example, if `decimals` equals `2`, a balance of `505` tokens should be displayed to a user as `5.05` (`505 / 10 ** 2`). Tokens usually opt for a value of 18, imitating the relationship between Ether and Wei. This is the default value returned by this function, unless it's overridden. NOTE: This information is only used for _display_ purposes: it in no way affects any of the arithmetic of the contract, including {IERC20-balanceOf} and {IERC20-transfer}."
      },
      "name()": {
        "details": "Returns the name of the token."
      },
      "symbol()": {
        "details": "Returns the symbol of the token, usually a shorter version of the name."
      },
      "totalSupply()": {
        "details": "See {IERC20-totalSupply}."
      },
      "transfer(address,uint256)": {
        "details": "See {IERC20-transfer}. Requirements: - `to` cannot be the zero address. - the caller must have a balance of at least `value`."
      },
      "transferFrom(address,address,uint256)": {
        "details": "See {IERC20-transferFrom}. Emits an {Approval} event indicating the updated allowance. This is not required by the EIP. See the note at the beginning of {ERC20}. NOTE: Does not update the allowance if the current allowance is the maximum `uint256`. Requirements: - `from` and `to` cannot be the zero address. - `from` must have a balance of at least `value`. - the caller must have allowance for ``from``'s tokens of at least `value`."
      }
    },
    "version": 1
  },
  "userdoc": {
    "kind": "user",
    "methods": {},
    "version": 1
  }
}