{
  "contractName": "TokenSwap",
  "abi": [
    {
      "inputs": [
        {
          "internalType": "address",
          "name": "_tokenABC",
          "type": "address"
        },
        {
          "internalType": "address",
          "name": "_tokenXYZ",
          "type": "address"
        }
      ],
      "stateMutability": "nonpayable",
      "type": "constructor"
    },
    {
      "inputs": [],
      "name": "tokenABC",
      "outputs": [
        {
          "internalType": "contract TokenABC",
          "name": "",
          "type": "address"
        }
      ],
      "stateMutability": "view",
      "type": "function",
      "constant": true
    },
    {
      "inputs": [],
      "name": "tokenXYZ",
      "outputs": [
        {
          "internalType": "contract TokenXYZ",
          "name": "",
          "type": "address"
        }
      ],
      "stateMutability": "view",
      "type": "function",
      "constant": true
    },
    {
      "inputs": [
        {
          "internalType": "uint256",
          "name": "_ratio",
          "type": "uint256"
        }
      ],
      "name": "setRatio",
      "outputs": [],
      "stateMutability": "nonpayable",
      "type": "function"
    },
    {
      "inputs": [],
      "name": "getRatio",
      "outputs": [
        {
          "internalType": "uint256",
          "name": "",
          "type": "uint256"
        }
      ],
      "stateMutability": "view",
      "type": "function",
      "constant": true
    },
    {
      "inputs": [
        {
          "internalType": "uint256",
          "name": "_Fees",
          "type": "uint256"
        }
      ],
      "name": "setFees",
      "outputs": [],
      "stateMutability": "nonpayable",
      "type": "function"
    },
    {
      "inputs": [],
      "name": "getFees",
      "outputs": [
        {
          "internalType": "uint256",
          "name": "",
          "type": "uint256"
        }
      ],
      "stateMutability": "view",
      "type": "function",
      "constant": true
    },
    {
      "inputs": [
        {
          "internalType": "uint256",
          "name": "amountTKA",
          "type": "uint256"
        }
      ],
      "name": "swapTKA",
      "outputs": [
        {
          "internalType": "uint256",
          "name": "",
          "type": "uint256"
        }
      ],
      "stateMutability": "nonpayable",
      "type": "function"
    },
    {
      "inputs": [
        {
          "internalType": "uint256",
          "name": "amountTKX",
          "type": "uint256"
        }
      ],
      "name": "swapTKX",
      "outputs": [
        {
          "internalType": "uint256",
          "name": "",
          "type": "uint256"
        }
      ],
      "stateMutability": "nonpayable",
      "type": "function"
    },
    {
      "inputs": [
        {
          "internalType": "uint256",
          "name": "amount",
          "type": "uint256"
        }
      ],
      "name": "buyTokensABC",
      "outputs": [],
      "stateMutability": "payable",
      "type": "function",
      "payable": true
    },
    {
      "inputs": [
        {
          "internalType": "uint256",
          "name": "amount",
          "type": "uint256"
        }
      ],
      "name": "buyTokensXYZ",
      "outputs": [],
      "stateMutability": "payable",
      "type": "function",
      "payable": true
    }
  ],
  "bytecode": "0x608060405234801562000010575f80fd5b5060405162000db138038062000db1833981016040819052620000339162000250565b5f8054336001600160a01b0319918216179091556004805482166001600160a01b0385811691821783556005805490941690851617909255604080516318160ddd60e01b8152905163095ea7b392309285926318160ddd928281019260209291908290030181865afa158015620000ac573d5f803e3d5ffd5b505050506040513d601f19601f82011682018060405250810190620000d2919062000286565b6040516001600160e01b031960e085901b1681526001600160a01b03909216600483015260248201526044016020604051808303815f875af11580156200011b573d5f803e3d5ffd5b505050506040513d601f19601f820116820180604052508101906200014191906200029e565b5060055460048054604080516318160ddd60e01b815290516001600160a01b039485169463095ea7b3943094909116926318160ddd92818301926020928290030181865afa15801562000196573d5f803e3d5ffd5b505050506040513d601f19601f82011682018060405250810190620001bc919062000286565b6040516001600160e01b031960e085901b1681526001600160a01b03909216600483015260248201526044016020604051808303815f875af115801562000205573d5f803e3d5ffd5b505050506040513d601f19601f820116820180604052508101906200022b91906200029e565b505050620002c6565b80516001600160a01b03811681146200024b575f80fd5b919050565b5f806040838503121562000262575f80fd5b6200026d8362000234565b91506200027d6020840162000234565b90509250929050565b5f6020828403121562000297575f80fd5b5051919050565b5f60208284031215620002af575f80fd5b81518015158114620002bf575f80fd5b9392505050565b610add80620002d45f395ff3fe60806040526004361061008f575f3560e01c8063ad20f47011610057578063ad20f4701461015b578063b2237ba31461016e578063db8d55f11461018d578063ec1ebd7a146101a1578063f62b77d7146101b5575f80fd5b80633d18678e146100935780635f70662d146100b45780637226d2c3146100f057806394e6d1a21461011d578063aaea23821461013c575b5f80fd5b34801561009e575f80fd5b506100b26100ad3660046108d6565b600355565b005b3480156100bf575f80fd5b506005546100d3906001600160a01b031681565b6040516001600160a01b0390911681526020015b60405180910390f35b3480156100fb575f80fd5b5061010f61010a3660046108d6565b6101c8565b6040519081526020016100e7565b348015610128575f80fd5b5061010f6101373660046108d6565b6104f3565b348015610147575f80fd5b506004546100d3906001600160a01b031681565b6100b26101693660046108d6565b6107d9565b348015610179575f80fd5b506100b26101883660046108d6565b600155565b348015610198575f80fd5b5060035461010f565b3480156101ac575f80fd5b5060015461010f565b6100b26101c33660046108d6565b610837565b5f8082116102295760405162461bcd60e51b815260206004820152602360248201527f616d6f756e74544b41206d7573742062652067726561746572207468656e207a60448201526265726f60e81b60648201526084015b60405180910390fd5b600480546040516370a0823160e01b8152339281019290925283916001600160a01b03909116906370a0823190602401602060405180830381865afa158015610274573d5f803e3d5ffd5b505050506040513d601f19601f8201168201806040525081019061029891906108ed565b10156102b65760405162461bcd60e51b815260040161022090610904565b5f6102c38360015461086a565b90505f60646102d48360035461086a565b6102de9190610959565b6102e89083610978565b90505f81116103095760405162461bcd60e51b81526004016102209061098b565b6005546040516370a0823160e01b815230600482015282916001600160a01b0316906370a0823190602401602060405180830381865afa15801561034f573d5f803e3d5ffd5b505050506040513d601f19601f8201168201806040525081019061037391906108ed565b116103905760405162461bcd60e51b8152600401610220906109d4565b600480546040516323b872dd60e01b81526001600160a01b03909116916323b872dd916103c391339130918a9101610a46565b6020604051808303815f875af11580156103df573d5f803e3d5ffd5b505050506040513d601f19601f820116820180604052508101906104039190610a6a565b5060055460405163095ea7b360e01b8152336004820152602481018390526001600160a01b039091169063095ea7b3906044016020604051808303815f875af1158015610452573d5f803e3d5ffd5b505050506040513d601f19601f820116820180604052508101906104769190610a6a565b506005546040516323b872dd60e01b81526001600160a01b03909116906323b872dd906104ab90309033908690600401610a46565b6020604051808303815f875af11580156104c7573d5f803e3d5ffd5b505050506040513d601f19601f820116820180604052508101906104eb9190610a6a565b509392505050565b5f6001548210156105525760405162461bcd60e51b8152602060048201526024808201527f616d6f756e74544b58206d7573742062652067726561746572207468656e20726044820152636174696f60e01b6064820152608401610220565b6005546040516370a0823160e01b815233600482015283916001600160a01b0316906370a0823190602401602060405180830381865afa158015610598573d5f803e3d5ffd5b505050506040513d601f19601f820116820180604052508101906105bc91906108ed565b10156105da5760405162461bcd60e51b815260040161022090610904565b5f600154836105e99190610959565b90505f6064600354836105fc9190610a90565b6106069190610959565b6106109083610978565b90505f81116106315760405162461bcd60e51b81526004016102209061098b565b600480546040516370a0823160e01b8152309281019290925282916001600160a01b03909116906370a0823190602401602060405180830381865afa15801561067c573d5f803e3d5ffd5b505050506040513d601f19601f820116820180604052508101906106a091906108ed565b116106bd5760405162461bcd60e51b8152600401610220906109d4565b6005546040516323b872dd60e01b81526001600160a01b03909116906323b872dd906106f190339030908990600401610a46565b6020604051808303815f875af115801561070d573d5f803e3d5ffd5b505050506040513d601f19601f820116820180604052508101906107319190610a6a565b506004805460405163095ea7b360e01b81523392810192909252602482018390526001600160a01b03169063095ea7b3906044016020604051808303815f875af1158015610781573d5f803e3d5ffd5b505050506040513d601f19601f820116820180604052508101906107a59190610a6a565b50600480546040516323b872dd60e01b81526001600160a01b03909116916323b872dd916104ab9130913391879101610a46565b60048054604051631b08392760e11b81529182018390526001600160a01b031690633610724e9034906024015b5f604051808303818588803b15801561081d575f80fd5b505af115801561082f573d5f803e3d5ffd5b505050505050565b600554604051631b08392760e11b8152600481018390526001600160a01b0390911690633610724e903490602401610806565b5f81158061088d5750828261087f8183610a90565b925061088b9083610959565b145b6108d05760405162461bcd60e51b815260206004820152601460248201527364732d6d6174682d6d756c2d6f766572666c6f7760601b6044820152606401610220565b92915050565b5f602082840312156108e6575f80fd5b5035919050565b5f602082840312156108fd575f80fd5b5051919050565b60208082526021908201527f73656e64657220646f65736e2774206861766520656e6f75676820546f6b656e6040820152607360f81b606082015260800190565b634e487b7160e01b5f52601160045260245ffd5b5f8261097357634e487b7160e01b5f52601260045260245ffd5b500490565b818103818111156108d0576108d0610945565b60208082526029908201527f65786368616e676520416d6f756e74206d7573742062652067726561746572206040820152687468656e207a65726f60b81b606082015260800190565b6020808252604c908201527f63757272656e746c79207468652065786368616e676520646f65736e7420686160408201527f766520656e6f7567682058595a20546f6b656e732c20706c656173652072657460608201526b0e4f240d8c2e8cae440747a560a31b608082015260a00190565b6001600160a01b039384168152919092166020820152604081019190915260600190565b5f60208284031215610a7a575f80fd5b81518015158114610a89575f80fd5b9392505050565b80820281158282048414176108d0576108d061094556fea26469706673582212207dd888907841e2a673c7db0ee76059510375a199960425e77b4828cea4b8914664736f6c63430008140033",
  "immutableReferences": {},
  "source": "// SPDX-License-Identifier: MIT\npragma solidity ^0.8.19;\n\nimport \"@openzeppelin/contracts/token/ERC20/ERC20.sol\";\nimport \"./TokenABC.sol\";\nimport \"./TokenXYZ.sol\";\n\n\n// this contract should be deployed after the deployment of the two contracts TokenABC and TokenXYZ\n// as instrcuted in the 2_deploy_contracts file\ncontract TokenSwap {\n    address payable admin;\n    //ratioAX is the percentage of how much TokenA is worth of TokenX\n    uint256 ratioAX;\n    bool AcheaperthenX;\n    uint256 fees;\n    TokenABC public tokenABC;\n    TokenXYZ public tokenXYZ;\n\n    constructor(address _tokenABC, address _tokenXYZ) {\n        admin = payable(msg.sender);\n        tokenABC = TokenABC(_tokenABC);\n        tokenXYZ = TokenXYZ(_tokenXYZ);\n        //due to openzeppelin implementation, transferFrom function implementation expects _msgSender() to be the beneficiary from the caller\n        // but in this use cae we are using this contract to transfer so its always checking the allowance of SELF\n        tokenABC.approve(address(this), tokenABC.totalSupply());\n        tokenXYZ.approve(address(this), tokenABC.totalSupply());\n    }\n\n    modifier onlyAdmin() {\n        payable(msg.sender) == admin;\n        _;\n    }\n\n    function setRatio(uint256 _ratio) public onlyAdmin {\n        ratioAX = _ratio;\n    }\n\n    function getRatio() public view onlyAdmin returns (uint256) {\n        return ratioAX;\n    }\n\n    function setFees(uint256 _Fees) public onlyAdmin {\n        fees = _Fees;\n    }\n\n    function getFees() public view onlyAdmin returns (uint256) {\n        return fees;\n    }\n\n    // accepts amount of TokenABC and exchenge it for TokenXYZ, vice versa with function swapTKX\n    // transfer tokensABC from sender to smart contract after the user has approved the smart contract to\n    // withdraw amount TKA from his account, this is a better solution since it is more open and gives the\n    // control to the user over what calls are transfered instead of inspecting the smart contract\n    // approve the caller to transfer one time from the smart contract address to his address\n    // transfer the exchanged TokenXYZ to the sender\n    function swapTKA(uint256 amountTKA) public returns (uint256) {\n        //check if amount given is not 0\n        // check if current contract has the necessary amout of Tokens to exchange\n        require(amountTKA > 0, \"amountTKA must be greater then zero\");\n        require(\n            tokenABC.balanceOf(msg.sender) >= amountTKA,\n            \"sender doesn't have enough Tokens\"\n        );\n\n        uint256 exchangeA = uint256(mul(amountTKA, ratioAX));\n        uint256 exchangeAmount = exchangeA -\n            uint256((mul(exchangeA, fees)) / 100);\n        require(\n            exchangeAmount > 0,\n            \"exchange Amount must be greater then zero\"\n        );\n\n        require(\n            tokenXYZ.balanceOf(address(this)) > exchangeAmount,\n            \"currently the exchange doesnt have enough XYZ Tokens, please retry later :=(\"\n        );\n\n        tokenABC.transferFrom(msg.sender, address(this), amountTKA);\n        tokenXYZ.approve(address(msg.sender), exchangeAmount);\n        tokenXYZ.transferFrom(\n            address(this),\n            address(msg.sender),\n            exchangeAmount\n        );\n        return exchangeAmount;\n    }\n\n    function swapTKX(uint256 amountTKX) public returns (uint256) {\n        //check if amount given is not 0\n        // check if current contract has the necessary amout of Tokens to exchange and the sender\n        require(amountTKX >= ratioAX, \"amountTKX must be greater then ratio\");\n        require(\n            tokenXYZ.balanceOf(msg.sender) >= amountTKX,\n            \"sender doesn't have enough Tokens\"\n        );\n\n        uint256 exchangeA = amountTKX / ratioAX;\n        uint256 exchangeAmount = exchangeA - ((exchangeA * fees) / 100);\n\n        require(\n            exchangeAmount > 0,\n            \"exchange Amount must be greater then zero\"\n        );\n\n        require(\n            tokenABC.balanceOf(address(this)) > exchangeAmount,\n            \"currently the exchange doesnt have enough XYZ Tokens, please retry later :=(\"\n        );\n        tokenXYZ.transferFrom(msg.sender, address(this), amountTKX);\n        tokenABC.approve(address(msg.sender), exchangeAmount);\n        tokenABC.transferFrom(\n            address(this),\n            address(msg.sender),\n            exchangeAmount\n        );\n        return exchangeAmount;\n    }\n\n    //leting the Admin of the TokenSwap to buyTokens manually is preferable and better then letting the contract\n    // buy automatically tokens since contracts are immutable and in case the value of some tokens beomes\n    // worthless its better to not to do any exchange at all\n    function buyTokensABC(uint256 amount) public payable onlyAdmin {\n        tokenABC.buyTokens{value: msg.value}(amount);\n    }\n\n    function buyTokensXYZ(uint256 amount) public payable onlyAdmin {\n        tokenXYZ.buyTokens{value: msg.value}(amount);\n    }\n\n    function mul(uint256 x, uint256 y) internal pure returns (uint256 z) {\n        require(y == 0 || (z = x * y) / y == x, \"ds-math-mul-overflow\");\n    }\n}",
  "sourcePath": "/Users/sandeepgautam/Desktop/tokenSwap1/contracts/TokenSwap.sol",
  "compiler": {
    "name": "solc",
    "version": "0.8.20+commit.a1b79de6.Emscripten.clang"
  },
  "schemaVersion": "3.4.16",
  "updatedAt": "2024-02-07T20:18:38.673Z",
  "networkType": "ethereum",
  "devdoc": {
    "kind": "dev",
    "methods": {},
    "version": 1
  },
  "userdoc": {
    "kind": "user",
    "methods": {},
    "version": 1
  }
}